:100000000C9463000C948B000C948B000C948B006C
:100010000C948B000C948B000C948B000C948B0034
:100020000C948B000C948B000C948B000C948B0024
:100030000C948B000C948B000C948B000C948B0014
:100040000C94F8040C948B000C94C6040C94A0043B
:100050000C948B000C948B000C948B000C948B00F4
:100060000C948B000C948B000000000024002700EF
:100070002A000000000023002600290000000008DC
:10008000000201000003040700000000000000005F
:10009000010204081020408001020408102001021F
:1000A0000408102000000000250028002B00040494
:1000B0000404040404040202020202020303030310
:1000C00003034205B80711241FBECFEFD8E0DEBFFF
:1000D000CDBF11E0A0E0B1E0EAEDF4E102C005908F
:1000E0000D92AC38B107D9F722E0ACE8B1E001C01D
:1000F0001D92A035B207E1F710E0C2E6D0E004C0DF
:100100002197FE010E942809C136D107C9F70E9434
:10011000E0050C94600A0C940000CF92DF92EF92FD
:10012000FF920F931F93CF93DF936C017A018B01A2
:10013000C0E0D0E0CE15DF0589F0D8016D918D01CA
:10014000D601ED91FC910190F081E02DC601099559
:10015000892B11F47E0102C02196ECCFC701DF91FB
:10016000CF911F910F91FF90EF90DF90CF90089566
:10017000089580E090E00895FC01538D448D252F73
:1001800030E0842F90E0821B930B541710F0CF9631
:10019000089501970895FC01918D828D981761F063
:1001A000828DDF01A80FB11D5D968C91928D9F5FAE
:1001B0009F73928F90E008958FEF9FEF0895FC0159
:1001C000918D828D981731F0828DE80FF11D858D0C
:1001D00090E008958FEF9FEF0895FC01918D228D9F
:1001E000892F90E0805C9F4F821B91098F73992724
:1001F00008958AE991E00E94ED0021E0892B09F43D
:1002000020E0822F0895FC01848DDF01A80FB11D2D
:10021000A35ABF4F2C91848D90E001968F7399273C
:10022000848FA689B7892C93A089B1898C91806429
:100230008C93938D848D981306C00288F389E02DEA
:1002400080818F7D80830895EF92FF920F931F939B
:10025000CF93DF93EC0181E0888F9B8D8C8D981379
:1002600005C0E889F989808185FD24C0F62E0B8DB3
:1002700010E00F5F1F4F0F731127E02E8C8DE812D7
:100280000CC00FB607FCFACFE889F989808185FF99
:10029000F5CFCE010E940301F1CF8B8DFE01E80F57
:1002A000F11DE35AFF4FF0820B8FEA89FB898081B1
:1002B000806207C0EE89FF896083E889F9898081BF
:1002C0008064808381E090E0DF91CF911F910F9156
:1002D000FF90EF900895CF93DF93EC01888D8823F2
:1002E000C9F0EA89FB89808185FD05C0A889B989A3
:1002F0008C9186FD0FC00FB607FCF5CF808185FF7E
:10030000F2CFA889B9898C9185FFEDCFCE010E94EB
:100310000301E7CFDF91CF91089580E090E0892B32
:1003200029F00E94F90081110C9400000895833097
:1003300081F028F4813099F08230A1F0089587305F
:10034000A9F08830B9F08430D1F4809180008F7D9D
:1003500003C0809180008F7780938000089584B5DA
:100360008F7702C084B58F7D84BD08958091B000E1
:100370008F7703C08091B0008F7D8093B000089587
:10038000CF93DF93282F30E0F901E458FF4F849199
:10039000F901E057FF4FD491F901E255FF4FC491A5
:1003A000CC2399F081110E949701EC2FF0E0EE0F21
:1003B000FF1FEC55FF4FA591B4918FB7F8949C9116
:1003C000ED2FE095E923EC938FBFDF91CF91089556
:1003D000CF93DF93282F30E0F901E458FF4F849149
:1003E000F901E057FF4FD491F901E255FF4FC49155
:1003F000CC2391F081110E949701EC2FF0E0EE0FD9
:10040000FF1FEE58FF4FA591B491EC91ED2381E0D1
:1004100090E021F480E002C080E090E0DF91CF9195
:100420000895CF93DF9390E0FC01E057FF4F2491B4
:10043000FC01E255FF4F8491882361F190E0880F21
:10044000991FFC01E859FF4FC591D491FC01EC556F
:10045000FF4FA591B491611109C09FB7F8948881AD
:10046000209582238883EC912E230BC0623061F4A7
:100470009FB7F8943881822F809583238883EC91ED
:100480002E2B2C939FBF06C08FB7F894E8812E2B9C
:1004900028838FBFDF91CF9108958E3008F08E5062
:1004A0008770806480937C0080917A008064809360
:1004B0007A0080917A0086FDFCCF809178002091AF
:1004C000790090E0922B08953FB7F89480919101C4
:1004D00090919201A0919301B091940126B5A89BAF
:1004E00005C02F3F19F00196A11DB11D3FBFBA2FC6
:1004F000A92F982F8827820F911DA11DB11DBC0126
:10050000CD0142E0660F771F881F991F4A95D1F7EA
:1005100008950F931F93CF93DF93CDB7DEB729973D
:100520000FB6F894DEBF0FBECDBF80913F02909111
:100530004002892B09F4A2C00E9464020091450286
:10054000109146022091470230914802DC01CB0114
:10055000801B910BA20BB30B8C329140A105B1050E
:1005600058F3F89480913B0290913C029A838983DE
:10057000E0913F02F0914002DF011196808189876E
:1005800090913702E0914902F0914A0280914B022A
:10059000992309F42EC09081982B9887908180959B
:1005A00089238F838F818C8388E08B8358856F812B
:1005B00049853B812C8189819A81508347FD252F74
:1005C0003A952083262F39F0441F00C00000608335
:1005D000000000C0F2CF38E04D9160830000019729
:1005E00061F7F0934A02E093490249873B832C83E9
:1005F00038C09081982B98879081809589238F832C
:100600008F818E8388E08D8358856F8149853D81F8
:100610002E8189819A81508347FD252F00C000C01B
:10062000208300C000C000C000C000C06083000084
:10063000262F3A9541F0441F000000C000C000C0C2
:1006400000C000C0E8CF38E04D9100C0608300C01A
:10065000019709F7F0934A02E093490249873D83E5
:100660002E839A83898378940E9464026093450262
:1006700070934602809347029093480229960FB6E2
:10068000F894DEBF0FBECDBFDF91CF911F910F91C8
:1006900008958F929F92AF92BF92CF92DF92EF9286
:1006A000FF926B017C010E9464024B015C01C1144A
:1006B000D104E104F104F1F00E946402DC01CB01F9
:1006C00088199909AA09BB09883E9340A105B1057B
:1006D00070F321E0C21AD108E108F10888EE880E13
:1006E00083E0981EA11CB11CC114D104E104F104E3
:1006F00019F7DDCFFF90EF90DF90CF90BF90AF90D4
:100700009F908F9008952FB7F89460918D0170910C
:100710008E0180918F01909190012FBF0895BF921B
:10072000CF92DF92EF92FF920F931F93CF93DF93BD
:10073000962F50E060E070E0592B682BCB01AA2780
:10074000BB27052FF82EBC01E0E0F0E0A0E0B0E010
:1007500020E030E08091390290913A022817390761
:1007600008F03FC080913E02882379F0869FE00127
:10077000879FD00D1124ED2E089F60011124BD2C00
:10078000489FC0011124592F03C0542FB02EEF2CC5
:1007900010914402D090410280913F02909140021A
:1007A0001D1103C08A0F9B1F07C08E0F9F1F6C0176
:1007B000C10ED11CE6011882109141026C01C10EDC
:1007C000D11CE601E882D09142026C01CD0ED11C11
:1007D000E601B882C09143026C01CC0ED11CE60147
:1007E00058832F5F3F4F139634962431310509F01B
:1007F000B1CFDF91CF911F910F91FF90EF90DF90DC
:10080000CF90BF900C948902009769F0FC01019091
:100810000020E9F73197AF01481B590BBC018AE969
:1008200091E00C948D0080E090E008958F929F926B
:10083000AF92BF920F931F93CF93DF93CDB7DEB7E5
:10084000A1970FB6F894DEBF0FBECDBF19A24230FC
:1008500008F44AE08E010F5D1F4F842E912CA12CCD
:10086000B12CA50194010E940609E62FB901CA0125
:1008700001501109EA3014F4E05D01C0E95CD801CF
:10088000EC93232B242B252B61F7C8010E94040431
:10089000A1960FB6F894DEBF0FBECDBFDF91CF910A
:1008A0001F910F91BF90AF909F908F900895CF921E
:1008B000DF92EF92FF92CF93DF936C01990FEE08D6
:1008C000FF08F7FE1AC0E0919A01F0919B01019098
:1008D000F081E02D6DE28AE991E00995EC0166274F
:1008E0007727CB016C197D098E099F094AE00E9488
:1008F00016047C01EC0EFD1E06C04AE0C701B601DD
:100900000E9416047C0189E191E00E9404048E0D8E
:100910009F1DDF91CF91FF90EF90DF90CF900895D2
:10092000CF93DF930E940404EC0189E191E00E94DF
:1009300004048C0F9D1FDF91CF9108950E945B0AE4
:100940001F920F920FB60F9211242F933F934F9344
:100950005F936F937F938F939F93AF93BF93EF9327
:10096000FF938AE991E00E940301FF91EF91BF910B
:10097000AF919F918F917F916F915F914F913F9137
:100980002F910F900FBE0F901F9018951F920F92EE
:100990000FB60F9211242F938F939F93EF93FF9392
:1009A000E091AA01F091AB018081E091B001F0915A
:1009B000B10182FD12C090818091B3018F5F8F736E
:1009C0002091B401821751F0E091B301F0E0E656B6
:1009D000FE4F958F8093B30101C08081FF91EF910D
:1009E0009F918F912F910F900FBE0F901F90189590
:1009F0001F920F920FB60F9211242F933F938F9354
:100A00009F93AF93BF9380918D0190918E01A091A0
:100A10008F01B091900130918C0123E0230F2D378D
:100A200020F40196A11DB11D05C026E8230F0296F2
:100A3000A11DB11D20938C0180938D0190938E0197
:100A4000A0938F01B09390018091910190919201B8
:100A5000A0919301B09194010196A11DB11D8093C5
:100A6000910190939201A0939301B0939401BF914F
:100A7000AF919F918F913F912F910F900FBE0F904B
:100A80001F90189510929D0110929C0188EE93E0A2
:100A9000A0E0B0E080939E0190939F01A093A001FD
:100AA000B093A1018BE091E090939B0180939A0118
:100AB00085EC90E09093A7018093A60184EC90E0F0
:100AC0009093A9018093A80180EC90E09093AB01F2
:100AD0008093AA0181EC90E09093AD018093AC01EA
:100AE00082EC90E09093AF018093AE0186EC90E0B1
:100AF0009093B1018093B0011092B3011092B401B0
:100B00001092B5011092B6011092380210923E0276
:100B1000109245021092460210924702109248022B
:100B200081E080934402809341021092420292E05D
:100B300090934302809337028CE390E090933C02C1
:100B400080933B020E942E099093400280933F02C3
:100B5000009761F02CE3FC0111922A95E9F784E1FA
:100B600090E090933A028093390208C010923C02C0
:100B700010923B0210923A021092390286E0809362
:100B80003D0280913802882339F061E086E00E94BE
:100B9000110286E00E94C001E4EBF0E0E491F0E095
:100BA000EE0FFF1FEC55FF4F8591949190934A02F1
:100BB00080934902E6E9F0E0E491E0934B02089566
:100BC000789484B5826084BD84B5816084BD85B528
:100BD000826085BD85B5816085BD80916E00816034
:100BE00080936E00109281008091810082608093DA
:100BF00081008091810081608093810080918000DC
:100C00008160809380008091B10084608093B10006
:100C10008091B00081608093B00080917A00846000
:100C200080937A0080917A00826080937A0080912C
:100C30007A00816080937A0080917A008068809346
:100C40007A001092C100E091AA01F091AB0182E01C
:100C50008083E091A601F091A7011082E091A801A4
:100C6000F091A9018FEC80831092B201E091AE0166
:100C7000F091AF0186E08083E091AC01F091AD018D
:100C8000808180618083E091AC01F091AD01808131
:100C900088608083E091AC01F091AD018081806833
:100CA0008083E091AC01F091AD0180818F7D8083E4
:100CB00060E082E00E94110261E086E00E94110281
:100CC00082E00E94C00160E080E00E9411028091F9
:100CD0003D0287FD07C061E00E94110280913D0244
:100CE0000E94C00181E0809338020E9489026091D5
:100CF0003E026D3821F120913F0230914002615057
:100D000031F070E08FEF9CE80E94F20802C060E0D2
:100D100070E0F90140913B0250913C02CF01821BEF
:100D2000930B8417950740F44081469FC001479F6D
:100D3000900D11249193EECF8DE880933E028CE1CB
:100D400091E00E940404C4E1D0E08CE391E00E94B1
:100D5000040468EE73E080E090E00E94490321976C
:100D6000A1F78EE391E00E94900484E491E00E9458
:100D7000900480E00E944D020E94570462E370E0FC
:100D800080E090E00E94490311E088EEC82E83E0E5
:100D9000D82EE12CF12C80E00E944D028035910587
:100DA0000CF060C082E00E94E801019709F05AC08F
:100DB00080910001882309F453C0109200018DE551
:100DC00091E00E94900481E691E00E9404040E9458
:100DD0008303A70196010E940609CA01B9014AE0EE
:100DE0000E94160485E791E00E94900480E00E9432
:100DF0004D020E945704C0E0D0E0BE010D2E000C51
:100E0000880B990B0E94F90720E030E040E85BE393
:100E10000E945D084B015C0120E030E0A9010E94C6
:100E20005D080E94C807062F20E030E04FE753E43A
:100E3000C501B4010E945D080E94C807862F402F9B
:100E4000602F0E948F030E9489022196C11521E024
:100E5000D20799F662E370E080E090E00E944903D7
:100E60001093990182E00E94E801892B09F07DC06E
:100E700080919901882361F00E948303609395011A
:100E80007093960180939701909398011092990125
:100E900080910001811169C00E94830380909501B7
:100EA00090909601A0909701B0909801DC01CB0141
:100EB00088199909AA09BB0981349C49A105B10582
:100EC00008F453C0109300018AE791E00E94900457
:100ED0000E94830360547C4981099109A70196010E
:100EE0000E940609CA01B9014AE00E94160485E77A
:100EF00091E00E94900480E00E944D020E945704FD
:100F0000CFEFD0E0BE010D2E000C880B990B0E9494
:100F1000F90720E030E040E85BE30E945D084B0108
:100F20005C0120E030E0A9010E945D080E94C80732
:100F3000062F20E030E04FE753E4C501B4010E94E2
:100F40005D080E94C807862F402F602F0E948F03E4
:100F50000E9489022297CF3F8FEFD80799F662E36C
:100F600070E080E090E00E9449030E948D0113CF61
:100F700080913F0290914002009711F00E94C309B6
:100F800080913D0287FD03C060E00C94110208953A
:100F90000E943C0888F09F5798F0B92F9927B751C5
:100FA000B0F0E1F0660F771F881F991F1AF0BA950D
:100FB000C9F714C0B13091F00E945608B1E008950D
:100FC0000C945608672F782F8827B85F39F0B93FFF
:100FD000CCF3869577956795B395D9F73EF49095C0
:100FE0008095709561957F4F8F4F9F4F0895E8943E
:100FF00009C097FB3EF490958095709561957F4F61
:101000008F4F9F4F9923A9F0F92F96E9BB2793950E
:10101000F695879577956795B795F111F8CFFAF41E
:10102000BB0F11F460FF1BC06F5F7F4F8F4F9F4F4F
:1010300016C0882311F096E911C0772321F09EE8AD
:10104000872F762F05C0662371F096E8862F70E013
:1010500060E02AF09A95660F771F881FDAF7880FED
:101060009695879597F9089557FD9058440F551F09
:1010700059F05F3F71F04795880F97FB991F61F01A
:101080009F3F79F087950895121613061406551F91
:10109000F2CF4695F1DF08C0161617061806991FFD
:1010A000F1CF86957105610508940895E894BB27F2
:1010B00066277727CB0197F908950E9470080C9452
:1010C000E1080E94D30838F00E94DA0820F0952346
:1010D00011F00C94CA080C94D00811240C945708F1
:1010E0000E94340870F3959FC1F3950F50E0551F8F
:1010F000629FF001729FBB27F00DB11D639FAA276D
:10110000F00DB11DAA1F649F6627B00DA11D661FBB
:10111000829F2227B00DA11D621F739FB00DA11DDC
:10112000621F839FA00D611D221F749F3327A00D96
:10113000611D231F849F600D211D822F762F6A2F32
:1011400011249F5750409AF0F1F088234AF0EE0F97
:10115000FF1FBB1F661F771F881F91505040A9F7C4
:101160009E3F510580F00C94CA080C9457085F3FCD
:10117000E4F3983ED4F3869577956795B795F79500
:10118000E7959F5FC1F7FE2B880F911D9695879578
:1011900097F9089597F99F6780E870E060E00895F7
:1011A0009FEF80EC089500240A941616170618067F
:1011B0000906089500240A9412161306140605065B
:1011C0000895092E0394000C11F4882352F0BB0FEC
:1011D00040F4BF2B11F460FF04C06F5F7F4F8F4F4F
:1011E0009F4F0895AA1BBB1B51E107C0AA1FBB1F3D
:1011F000A617B70710F0A61BB70B881F991F5A95A3
:10120000A9F780959095BC01CD010895A1E21A2E11
:10121000AA1BBB1BFD010DC0AA1FBB1FEE1FFF1F9A
:10122000A217B307E407F50720F0A21BB30BE40BEA
:10123000F50B661F771F881F991F1A9469F7609531
:101240007095809590959B01AC01BD01CF010895EB
:10125000EE0FFF1F0590F491E02D0994CF93DF93DB
:101260008230910510F482E090E0E0914E02F0911E
:101270004F0220E030E0C0E0D0E0309711F1408133
:10128000518148175907C0F04817590761F4828106
:101290009381209719F09B838A832BC090934F02F0
:1012A00080934E0226C02115310519F042175307CD
:1012B00018F49A01BE01DF01EF010280F381E02DF5
:1012C000DCCF2115310509F1281B390B24303105FC
:1012D00090F412968D919C9113976115710521F0F0
:1012E000FB019383828304C090934F0280934E024C
:1012F000FD01329644C0FD01E20FF31F81939193EB
:10130000225031092D933C933AC020914C023091E8
:101310004D02232B41F420910301309104013093BD
:101320004D0220934C0220910101309102012115C0
:10133000310541F42DB73EB74091050150910601AA
:10134000241B350BE0914C02F0914D02E217F3079C
:10135000A0F42E1B3F0B2817390778F0AC014E5F25
:101360005F4F2417350748F04E0F5F1F50934D0213
:1013700040934C028193919302C0E0E0F0E0CF01F2
:10138000DF91CF9108950F931F93CF93DF93009731
:1013900009F48CC0FC0132971382128200914E0234
:1013A00010914F020115110581F420813181820FC6
:1013B000931F20914C0230914D022817390779F57F
:1013C000F0934D02E0934C0271C0D80140E050E030
:1013D000AE17BF0750F412962D913C911397AD01B3
:1013E0002115310509F1D901F3CF9D01DA013383CC
:1013F000228360817181860F971F8217930769F49A
:10140000EC0128813981260F371F2E5F3F4F318332
:1014100020838A819B8193838283452B29F4F093D7
:101420004F02E0934E0242C01396FC93EE93129744
:10143000ED01499159919E01240F351FE217F307E1
:1014400071F480819181840F951F029611969C936F
:101450008E938281938113969C938E931297E0E0F2
:10146000F0E0D80112968D919C911397009719F096
:10147000F8018C01F6CF8D919C9198012E5F3F4F22
:10148000820F931F20914C0230914D02281739078B
:1014900069F4309729F410924F0210924E0202C064
:1014A0001382128210934D0200934C02DF91CF9170
:1014B0001F910F91089581E090E0F8940C94600AD8
:1014C00010E0C2E6D0E004C0FE010E942809219687
:0A14D000C336D107C9F7F894FFCF27
:1014DA00010000500280000000000024018D00BCC1
:1014EA00006B01ED00CB00DF000D0A0032302073E3
:1014FA0065636F6E647320746F2063616C696272D6
:10150A006174652073656E736F7220002E0020640B
:10151A006F6E650057616974696E6720666F722025
:10152A006D6F74696F6E206576656E74002D2D2D52
:10153A00006D6F74696F6E206465746563746564A9
:10154A00206174200020736563006D6F74696F6E8B
:0C155A0020656E64656420617420000050
:00000001FF
